:020000020000FC
:100000000C941800484144414E20484144414E2040
:10001000484144414E006088A8904028D00820788C
:10002000B048E0A0F068D85010C030187098B8C838
:1000300008E00EBF0FEF0DBFF0E0E4E010E114B9EF
:100040000E9425000E942800FFCF059100300895EE
:100050000E942C00E9F708950E9431000E942500BB
:1000600008950E943E0022F00E944B001CE001C057
:1000700014E21F930E9450001F910895015452F002
:10008000FF93EF93F0E0E6E1E00F1127F11F0491F9
:10009000EF91FF9108950E9459000E945B0008951E
:1000A000DEB7CDB72C982B812F930E9473002F9130
:1000B0000895000F08950E945F00E9F708950E94D7
:1000C000690016E01F930E9450001F910E94590082
:1000D000089510F422E101C026E02C9A2F930E948B
:1000E00073002F910895DEB7CDB70F931F932F9311
:1000F0000F921F920B8121E0209F202D10E000E045
:100100000A95F1F71A95D9F72A95C1F71F900F9024
:080110002F911F910F9108953A
:00000001FF
