:020000020000FC
:100000000C941500484144492049534D41494C0046
:100010006088A8904028D0082078B048E0A0F06818
:10002000D85010C030187098B8C808E00EBF0FEF55
:100030000DBFF0E0E4E010E114B90E9422000E943C
:100040002500FFCF0591003008950E942900E9F7AF
:1000500008950E942E000E94220008950E943B00F5
:1000600022F00E9448001AE001C01EE11F930E9486
:100070004D001F910895015452F0FF93EF93F0E06B
:10008000E0E1E00F1127F11F0491EF91FF91089536
:100090000E9456000E9458000895DEB7CDB72C98F4
:1000A0002B812F930E9470002F910895000F0895C7
:1000B0000E945C00E9F708950E94660015E01F9316
:1000C0000E944D001F910E945600089510F42FE0E9
:1000D00001C025E02C9A2F930E9470002F91089563
:1000E000DEB7CDB70F931F932F930F921F920B8103
:1000F00021E0209F202D10E000E00A95F1F71A95ED
:10010000D9F72A95C1F71F900F902F911F910F914A
:02011000089550
:00000001FF
