:020000020000FC
:100000000C9412004841444900006088A8904028A0
:10001000D0082078B048E0A0F068D85010C0301860
:100020007098B8C808E00EBF0FEF0DBFF0E0E4E035
:1000300010E114B90E941F000E942200FFCF059119
:10004000003008950E942600E9F708950E942B00D1
:100050000E941F0008950E9435000E9441001CE08C
:100060001F930E9446001F910895FF93EF93015440
:10007000F0E0EAE0E00F1127F11F0491EF91FF910A
:1000800008950E944F000E9451000895DEB7CDB739
:100090002C982B812F930E9469002F910895000FB7
:1000A00008950E945500E9F708950E945F0016E048
:1000B0001F930E9446001F910E944F00089510F464
:1000C00022E101C026E02C9A2F930E9469002F9113
:1000D0000895DEB7CDB70F931F932F930F921F9202
:1000E0000B8121E0209F202D10E000E00A95F1F720
:1000F0001A95D9F72A95C1F71F900F902F911F914C
:040100000F910895BE
:00000001FF
