:020000020000FC
:040000000C94340028
:1000680008E00EBF0FEF0DBF00EF0AB907E004B9B3
:100078000E945B000E946F0009E00093500105E0B8
:100088000093510109E00093520105E000935301E8
:1000980000E00093540102E00093550100E0009352
:1000A80056010E94E0000E94B8000C9459000F937A
:1000B8001F932F9323E010E000E00A95F1F71A95BB
:1000C800D9F72A95C1F72F911F910F9108952A9A70
:1000D80008952A9808950E946B000E945B0000E32F
:1000E8000E948A000E948A000E948A0000E20E9400
:1000F8008A0008E20E94A4000FE00E94A40001E028
:100108000E94A40006E00E94A40008950F93007FB7
:100118000BB9299A000000000000000029980E94ED
:100128005B000F9108950E948A00000F000F000FD6
:10013800000F0E948A000895289A0E949700089547
:1001480028980E949700089501E00E94A40008954D
:1001580001E00E94A40008950191003021F00E945E
:10016800A0000C94B00008950E94A800F1E0E0E01F
:100178000E94B0000895F1E0E0E510E020E0008181
:10018800143051F0153029F0203049F409300C941E
:10019800D40002300C94D40003300C94D400053001
:1001A80021F0039500830C94DF002095002701932C
:1001B8001395163021F70895F1E0E0E5D1E0C5E0A8
:1001C80016E00191103031F00063088321971A95E9
:0801D8000C94E5000F8308956B
:00000001FF
