:020000020000FC
:040000000C94340028
:04002C000C94070128
:1000680008E00EBF0FEF0DBF00EF0AB907E004B9B3
:100078000E945E000E94720009E00093500105E0B2
:100088000093510109E00093520105E000935301E8
:1000980000E00093540102E00093550100E0009352
:1000A80056010E94FA0078940E94E3000E94BB0067
:1000B8000C9458000F931F932F9323E010E000E057
:1000C8000A95F1F71A95D9F72A95C1F72F911F913B
:1000D8000F9108952A9A08952A9808950E946E000B
:1000E8000E945E0000E30E948D000E948D000E9425
:1000F8008D0000E20E948D0008E20E94A7000FE038
:100108000E94A70001E00E94A70006E00E94A70045
:1001180008950F93007F0BB9299A00000000000092
:10012800000029980E945E000F9108950E948D009A
:10013800000F000F000F000F0E948D000895289AED
:100148000E949A00089528980E949A00089502E053
:100158000E94A700089501E00E94A7000895019158
:10016800003021F00E94A3000C94B30008950E946F
:10017800AB00F1E0E0E00E94B3000895F1E0E0E5B3
:1001880010E020E00081143051F0153029F02030C3
:1001980049F409300C94D70002300C94D70003308E
:1001A8000C94D700053021F0039500830C94E200ED
:1001B8002095002701931395163021F70895F1E053
:1001C800E0E5D1E0C7E016E00191212F0063088344
:1001D8002197113041F0269518F40AE308832197F6
:1001E8001A950C94E80000E0098708950CE0009344
:1001F800810004EF0093890003E20093880002E085
:1002080000936F0008950F930FB70E94C2000FBFAD
:040218000F91189595
:00000001FF
