:020000020000FC
:040000000C94340028
:04002C000C94060129
:1000680008E00EBF0FEF0DBF00EF0AB907E004B9B3
:100078000E9459000E9468000E94F9007894F3E0F9
:10008800E0E005E0019304E0019309E0019305E055
:10009800019303E0019302E0019300E001930E94C1
:1000A800E2000E94B1000C9453000F931F9312E3D7
:1000B80000E00A95F1F71A95D9F71F910F91089565
:1000C8002A9A08952A9808950E9464000E94590067
:1000D80000E30E9483000E9483000E94830000E2E4
:1000E8000E94830008E20E949D000FE00E949D008C
:1000F80001E00E949D0006E00E949D0008950F9374
:10010800007F0BB9299A0000000000000000299820
:100118000E9459000F9108950E948300000F000F5C
:10012800000F000F0E9483000895289A0E949000F3
:10013800089528980E949000089502E00E949D006A
:10014800089501E00E949D0008950191003021F07A
:100158000E9499000C94A90008950E94A100F2E061
:10016800E0E00E94A9000895FF93EF93F3E0E0E038
:1001780010E020E00081143049F0153021F02030E3
:1001880059F40C94D30002300C94D40031813230ED
:1001980031F403300C94D40005300C94D4000930A9
:1001A80021F0039500830C94DF002095002701932C
:1001B80013951630F9F6EF91FF910895F3E0E0E01A
:1001C800D2E0C7E016E00191212F00630883219750
:1001D800113041F0269518F40AE3088321971A95FF
:1001E8000C94E70000E0098708950CE00093810073
:1001F80004EF0093890003E20093880002E0009373
:100208006F0008950F93FF93EF93DF93CF930FB78A
:100218000F930E94B8000F910FBFCF91DF91EF911C
:06022800FF910F911895F3
:00000001FF
