:020000020000FC
:040000000C94340028
:04002C000C94060129
:1000680008E00EBF0FEF0DBF00EF0AB907E004B9B3
:100078000E945E000E946D000E94F900789405E0DD
:100088000093500104E00093510109E000935201EC
:1000980005E00093530103E00093540102E000934C
:1000A800550100E0009356010E94E2000E94B6004C
:1000B8000C9458000F931F9312E300E00A95F1F790
:1000C8001A95D9F71F910F9108952A9A08952A9899
:1000D80008950E9469000E945E0000E30E94880063
:1000E8000E9488000E94880000E20E94880008E2BE
:1000F8000E94A2000FE00E94A20001E00E94A2005C
:1001080006E00E94A20008950F93007F0BB9299A78
:10011800000000000000000029980E945E000F9176
:1001280008950E948800000F000F000F000F0E9422
:1001380088000895289A0E949500089528980E949A
:100148009500089502E00E94A200089501E00E942F
:10015800A20008950191003021F00E949E000C94A5
:10016800AE0008950E94A600F1E0E0E00E94AE0013
:100178000895FF93EF93F1E0E0E510E020E00081BF
:10018800143051F0153029F0203049F409300C941E
:10019800D40002300C94D40003300C94D400053001
:1001A80021F0039500830C94DF002095002701932C
:1001B8001395163021F7EF91FF910895F1E0E0E5EE
:1001C800D1E0C7E016E00191212F00630883219751
:1001D800113041F0269518F40AE3088321971A95FF
:1001E8000C94E70000E0098708950CE00093810073
:1001F80004EF0093890003E20093880002E0009373
:100208006F0008950F93FF93EF93DF93CF930FB78A
:100218000F930E94BD000F910FBFCF91DF91EF9117
:06022800FF910F911895F3
:00000001FF
