:020000020000FC
:040000000C94340028
:04002C000C94090126
:1000680008E00EBF0FEF0DBF00EF0AB907E004B9B3
:100078000E9461000E94700009E00093500109E0AD
:100088000093500105E00093510109E000935201EB
:1000980005E00093530100E00093540102E000934F
:1000A800550100E0009356010E94FC0078940E94DC
:1000B800E5000E94B9000C945B000F931F9312E3B4
:1000C80000E00A95F1F71A95D9F71F910F91089555
:1000D8002A9A08952A9808950E946C000E94610047
:1000E80000E30E948B000E948B000E948B0000E2BC
:1000F8000E948B0008E20E94A5000FE00E94A50064
:1001080001E00E94A50006E00E94A50008950F9353
:10011800007F0BB9299A0000000000000000299810
:100128000E9461000F9108950E948B00000F000F3C
:10013800000F000F0E948B000895289A0E949800D3
:10014800089528980E949800089502E00E94A5004A
:10015800089501E00E94A50008950191003021F062
:100168000E94A1000C94B10008950E94A900F1E03A
:10017800E0E00E94B1000895FF93EF93F1E0E0E51D
:1001880010E020E00081143051F0153029F02030C3
:1001980049F409300C94D70002300C94D70003308E
:1001A8000C94D700053021F0039500830C94E200ED
:1001B8002095002701931395163021F7EF91FF91B1
:1001C8000895F1E0E0E5D1E0C7E016E00191212FC4
:1001D800006308832197113041F0269518F40AE34B
:1001E800088321971A950C94EA0000E0098708957E
:1001F8000CE00093810004EF0093890003E2009370
:10020800880002E000936F0008950F931F932F93C7
:10021800FF93EF93DF93CF930FB70F930E94C00024
:100228000F910FBFCF91DF91EF91FF912F911F9108
:040238000F91189575
:00000001FF
