:020000020000FC
:040000000C94340028
:1000680008E00EBF0FEF0DBF0E944C000E94780001
:100078000E9451000E946E000E94F7000091110238
:100088000E94EA000E94E1000E9406010C944000D0
:1000980000EF0AB907E004B908952A9A0E94780087
:1000A80000E30E9483000E9483000E94830000E214
:1000B8000E94830008E20E949A000FE00E949A00C2
:1000C80001E00E949A0006E00E949A0004E0009372
:1000D8001102089500E1D2E0C0E010E219930A95F8
:1000E800E1F70027088308950F931F9312E300E0B8
:1000F8000A95F1F71A95D9F71F910F9108950F9363
:10010800007F0BB9299A0000000000000000299820
:100118000E9478000F9108950E94830002950E9422
:1001280083000895289A0E949000089528980E94B4
:100138009000089502E00E949A00089500E6009356
:100148007C0007E800937A0000917A00006400932D
:100158007A0000917A0006FD0C94AD0000917900B8
:1001680008950E94B70002950F930F7000630A3339
:1001780008F0095F0E9496000F9108950E94A2005E
:100188000C3058F00B3260F0023568F0023870F02D
:100198000F3C78F000E00C94E00005E00C94E000DF
:1001A80004E00C94E00003E00C94E00002E00C94FE
:1001B800E00001E00C94E00008950E94C2000023D2
:1001C800E1F70E94C2000023E1F30895102F009385
:1001D80011020E949E00103029F004E10E949A004A
:1001E8001A95D9F708950E949E00F2E0E0E00E9477
:1001F800FE0008950191003021F00E9496000C94B1
:10020800FE000895023061F0053099F00430D1F015
:10021800033041F105B114E0012705B90C944201FE
:1002280000911102003051F10A950E94EA000C94E5
:100238004201009111020F3009F103950E94EA0072
:100248000C9442010E94430108810A3529F00032CA
:1002580031F003950C94410100E20C94410101E452
:100268000C9441010E94430108810134A9F3003232
:1002780019F00A950C9441010AE508830895D2E023
:0E028800C0E010911102C10F1127D11F08957F
:00000001FF
