:020000020000FC
:040000000C94340028
:1000680008E00EBF0FEF0DBF0E9444000E94680019
:100078000E944D000E94D5000E94E0000C943E00B2
:1000880000EF0AB907E004B908952A9A08952A9852
:1000980008950E9449000E94680000E30E947300CE
:1000A8000E9473000E94730000E20E94730008E23D
:1000B8000E948A000FE00E948A0001E00E948A00E4
:1000C80006E00E948A0008950F931F9312E300E050
:1000D8000A95F1F71A95D9F71F910F9108950F9383
:1000E800007F0BB9299A0000000000000000299841
:1000F8000E9468000F9108950E94730002950E9463
:1001080073000895289A0E948000089528980E94F4
:100118008000089502E00E948A00089501E00E948C
:100128008A00089500E600937C0007E800937A00AF
:1001380000917A00006400937A0000917A0006FD2D
:100148000C94A1000091790008950E94AB000295DB
:100158000F930F7000630A3308F0095F0E9486004E
:100168000F9108950E9496000C3058F00B3260F001
:10017800023568F0023870F00F3C78F000E00C941B
:10018800D40005E00C94D40004E00C94D40003E0FF
:100198000C94D40002E00C94D40001E00C94D40038
:1001A80008950E94B6000023E1F70E9492000E9481
:1001B800B6000023E1F30895102F04E10E948A009D
:0601C8001A95D9F7089515
:00000001FF
