:020000020000FC
:040000000C94340028
:1000680008E00EBF0FEF0DBF0E9446000E9475000A
:100078000E944F000E946D000E94E5000E940A0144
:100088000C94400000EF0AB907E004B908952A9AD1
:1000980008952A9808950E944B000E94750000E375
:1000A8000E9480000E9480000E94800000E20E945E
:1000B800800008E20E9497000FE00E94970001E08C
:1000C8000E94970006E00E94970000270093110203
:1000D800089501E1D2E0C0E0112719930A95E1F7EC
:1000E80008950F931F9312E300E00A95F1F71A950C
:1000F800D9F71F910F9108950F93007F0BB9299A93
:10010800000000000000000029980E9475000F916F
:1001180008950E94800002950E9480000895289A00
:100128000E948D00089528980E948D00089502E08D
:100138000E949700089501E00E949700002700930D
:100148001102089500E600937C0007E800937A0006
:1001580000917A00006400937A0000917A0006FD0D
:100168000C94B1000091790008950E94BB0002959B
:100178000F930F7000630A3308F0095F0E94930021
:100188000F9108950E94A6000C3058F00B3260F0D1
:10019800023568F0023870F00F3C78F000E00C94FB
:1001A800E40005E00C94E40004E00C94E40003E0AF
:1001B8000C94E40002E00C94E40001E00C94E400E8
:1001C80008950E94C6000023E1F70E94C60000239C
:1001D800E1F30895102F009311020E949B00103044
:1001E80029F004E10E9497001A95D9F708950E9412
:1001F8009B00F2E0E0E00E940201089501910030C6
:1002080021F00E9493000C9402010895023031F00D
:10021800053059F0043081F0033071F0009111027B
:100228000A950E94EE000C9420010091110203959A
:0A0238000E94EE000C9420010895CE
:00000001FF
